S00C00006D61696E2E7372656373
S11300000C942A000C9447000C9447000C9447006D
S11300100C9447000C9447000C9447000C94470040
S11300200C9447000C9447000C9447000C94470030
S11300300C9447000C9447000C9447000C94470020
S11300400C9447000C9447000C9447000C94470010
S11300500C94470011241FBECFE5D8E0DEBFCDBF0E
S113006010E0A0E6B0E0E8EBF2E002C005900D92EB
S1130070A03AB107D9F720E0A0EAB0E001C01D9290
S1130080A23AB207E1F70E942C010C945A010C9495
S11300900000BC0140E050E080E00EC0FB01E40F32
S11300A0F51F208130E0042E02C0220F331F0A9472
S11300B0E2F7822B4F5F5F4F483051057CF3089580
S11300C0CF92DF92EF92FF920F931F93CF93DF9320
S11300D0CDB7DEB7C054D1090FB6F894DEBF0FBE5A
S11300E0CDBF00E010E022C09801220F331F220F81
S11300F0331F220F331FFC01E20FF31FE40FF51F20
S1130100A081EE24E394F12CEC0EFD1E2E0D3F1D78
S1130110F901E40FF51FA0834F5F5F4F02C040E079
S113012050E04830510504F30F5F1F4F08301105AC
S1130130B4F3C12CD12C37C0A601440F551F440F72
S1130140551F440F551F480F591F9F01261B370B7E
S1130150285F3F4F27703078332334F4215031091E
S1130160286F3F6F2F5F3F4F8601000F111F000F55
S1130170111F000F111FA1E0B0E0AC0FBD1F0A0F4B
S11301801B1F200F311FD9012C914E0F5F1FDA0165
S11301902C93319602C0E0E0F0E0E830F10564F21F
S11301A0BFEFCB1ADB0AE8E0CE16D104A4F3C05C9F
S11301B0DF4F0FB6F894DEBF0FBECDBFDF91CF91F6
S11301C01F910F91FF90EF90DF90CF900895CF9201
S11301D0DF92EF92FF920F931F93CF93DF936C0103
S11301E02CC081E090E0002E02C0880F991F0A9471
S11301F0E2F78BBBC801880F991F880F991F880FDE
S1130200991F8C0D9D1D0E944900809582BB2196EB
S113021002C0C0E0D0E0C530D1051CF380E792E015
S11302200197F1F700C000000F5F1F4F02C000E00C
S113023010E0083011056CF3B7017B0191E0E91A75
S1130240F108672BA1F7DF91CF911F910F91FF90D8
S1130250EF90DF90CF9008958FEF8ABB81BB8EEF34
S113026087BBB09B14C081E090E02091A000309146
S1130270A100232B11F080E090E09093A1008093E3
S1130280A0006FE070E080E690E00E94E7008091BB
S1130290A0009091A100892B31F06FEF7FEF80E6F1
S11302A090E00E94600061E070E080E690E00E94CF
S10B02B0E700D7CFF894FFCF5B
S11302B8000001010101000000010001010001002A
S11302C80100000101000001010001010101000118
S11302D80101000101000101010000010100000108
S11302E800010001010001000000010101010000FA
S9030000FC
