S00C00006D61696E2E7372656373
S11300000C942A000C943F000C943F000C943F0085
S11300100C943F000C943F000C943F000C943F0060
S11300200C943F000C943F000C943F000C943F0050
S11300300C943F000C943F000C943F000C943F0040
S11300400C943F000C943F000C943F000C943F0030
S11300500C943F0011241FBECFE5D8E0DEBFCDBF16
S113006010E0A0E6B0E0EEE7F2E002C005900D92E9
S1130070A03AB107D9F70E9418010C943D010C94E1
S11300800000BC0140E050E080E00EC0FB01E40F42
S1130090F51F208130E0042E02C0220F331F0A9482
S11300A0E2F7822B4F5F5F4F483051057CF3089590
S11300B0CF92DF92EF92FF920F931F93CF93DF9330
S11300C0CDB7DEB7C054D1090FB6F894DEBF0FBE6A
S11300D0CDBF00E010E022C09801220F331F220F91
S11300E0331F220F331FFC01E20FF31FE40FF51F30
S11300F0A081EE24E394F12CEC0EFD1E2E0D3F1D89
S1130100F901E40FF51FA0834F5F5F4F02C040E089
S113011050E04830510504F30F5F1F4F08301105BC
S1130120B4F3C12CD12C37C0A601440F551F440F82
S1130130551F440F551F480F591F9F01261B370B8E
S1130140285F3F4F27703078332334F4215031092E
S1130150286F3F6F2F5F3F4F8601000F111F000F65
S1130160111F000F111FA1E0B0E0AC0FBD1F0A0F5B
S11301701B1F200F311FD9012C914E0F5F1FDA0175
S11301802C93319602C0E0E0F0E0E830F10564F22F
S1130190BFEFCB1ADB0AE8E0CE16D104A4F3C05CAF
S11301A0DF4F0FB6F894DEBF0FBECDBFDF91CF9106
S11301B01F910F91FF90EF90DF90CF900895EF92F1
S11301C0FF920F931F93CF93DF938C0124C081E0A0
S11301D090E00C2E02C0880F991F0A94E2F78BBBA3
S11301E0CE01880F991F880F991F880F991F800FC0
S11301F0911F0E944100809588BB80E792E001979F
S1130200F1F700C00000219602C0C0E0D0E0C83081
S1130210D105ECF2B7017B0191E0E91AF108672BF3
S1130220A1F7DF91CF911F910F91FF90EF90089567
S11302308FEF8ABB87BB8EEF81BBC0E0D0E019C0D3
S1130240809B06C061E070E080E690E00E94580068
S113025065E070E080E690E00E94DF00CE01019648
S113026087709078992324F40197886F9F6F019683
S1110270EC01C830D10524F3E0CFF894FFCFA1
S113027E0000010101010000000100010100010064
S113028E0100000101000001010001010101000152
S113029E0101000101000101010000010100000142
S11302AE0001000101000100000001010101000034
S9030000FC
